:020000040800F2
:1000000000000120F13A0008C1390008CF3900088A
:10001000D5390008DB390008E1390008000000008C
:10002000000000000000000000000000E7390008A8
:10003000F539000800000000033A0008113A0008F2
:10004000413B0008413B0008413B0008413B0008A0
:10005000413B0008413B0008413B0008413B000890
:10006000413B0008413B0008413B0008413B000880
:10007000413B0008413B0008413B0008413B000870
:10008000413B0008413B0008413B0008413B000860
:100090001D3A0008413B0008413B0008313A000886
:1000A000413B0008413B0008413B0008413B000840
:1000B000413B0008413B0008413B0008413B000830
:1000C000413B0008413B0008413B0008413B000820
:1000D000413B0008413B0008413B0008413B000810
:1000E0004D3A0008413B0008413B0008413B0008F5
:1000F000413B0008413B0008413B0008413B0008F0
:10010000413B00080000000000000000413B0008E7
:10011000413B0008413B0008413B0008413B0008CF
:10012000413B0008413B0008413B0008413B0008BF
:10013000413B0008413B00080000000000000000B7
:10014000413B0008413B0008413B00080000000023
:10015000000000000000000000000000000000009F
:10016000413B0008413B0008413B0008413B00087F
:10017000413B0008413B0008413B0008413B00086F
:10018000413B0008413B0008000000000000000067
:04019000413B0008E7
:1001940010B5054C237833B9044B13B10448AFF3BD
:1001A40000800123237010BD0C000020000000001B
:1001B4009C3B000808B5034B1BB103490348AFF34C
:1001C400008008BD00000000100000209C3B0008D7
:1001D40080B500AF084A084B1B6843F01003136056
:1001E400032000F089FF002000F008F803F034FB3E
:1001F4000023184680BD00BF0020024080B582B0B5
:1002040000AF7860124B1A68124B1B7819464FF4F2
:100214007A73B3FBF1F3B2FBF3F3184600F0A1FFDA
:100224000346002B01D001230EE07B680F2B0AD874
:10023400002279684FF0FF3000F069FF064A7B68BE
:100244001360002300E0012318460837BD4680BD33
:1002540008000020040000200000002080B400AF4B
:10026400064B1B781A46064B1B681344044A13605A
:1002740000BFBD465DF8047B704700BF040000204A
:100284002C00002080B400AF034B1B681846BD4609
:100294005DF8047B704700BF2C00002080B584B05B
:1002A40000AF7860FFF7EEFFB8607B68FB60FB6827
:1002B400B3F1FF3F05D0094B1B781A46FB68134482
:1002C400FB6000BFFFF7DEFF0246BB68D21AFB6883
:1002D4009A42F7D300BF1037BD4680BD040000200A
:1002E40080B584B000AF78607B68002B01D1012316
:1002F400ECE07B6893F82030DBB2002B02D1786805
:1003040003F0CEFA7B681B687A681268126822F0E0
:1003140002021A60FFF7B6FFF86012E0FFF7B2FFBF
:100324000246FB68D31A0A2B0BD97B685B6A43F439
:1003340000327B685A627B68052283F820200123FF
:10034400C4E07B681B685B6803F00203002BE5D103
:100354007B681B687A681268126842F001021A60AE
:10036400FFF790FFF86012E0FFF78CFF0246FB688E
:10037400D31A0A2B0BD97B685B6A43F400327B687F
:100384005A627B68052283F8202001239EE07B6863
:100394001B685B6803F00103002BE5D07B681B7EC0
:1003A400012B08D17B681B687A681268126842F0D6
:1003B40080021A6007E07B681B687A68126812681A
:1003C40022F080021A607B685B7E012B08D17B6877
:1003D4001B687A681268126842F040021A6007E0EB
:1003E4007B681B687A681268126822F040021A60FF
:1003F4007B689B7E012B08D17B681B687A68126836
:10040400126842F020021A6007E07B681B687A6871
:100414001268126822F020021A607B68DB7E012BCE
:1004240008D17B681B687A681268126822F010028F
:100434001A6007E07B681B687A681268126842F0E9
:1004440010021A607B681B7F012B08D17B681B6834
:100454007A681268126842F008021A6007E07B6842
:100464001B687A681268126822F008021A607B68B6
:100474005B7F012B08D17B681B687A68126812685D
:1004840042F004021A6007E07B681B687A6812680D
:10049400126822F004021A607B681B687A6891680B
:1004A4007A68D26811437A68126911437A6852698A
:1004B40011437A685268013A0A43DA617B68002280
:1004C4005A627B68012283F82020002318461037E3
:1004D400BD4680BD80B487B000AF786039607B686A
:1004E4001B687B617B6893F82030FB74FB7C012BD9
:1004F40003D0FB7C022B40F0AA807B69D3F8003246
:1005040043F001027B69C3F800223B685B6903F096
:100514001F03012202FA03F3FB607B69D3F81C2258
:10052400FB68DB431A407B69C3F81C223B68DB6928
:10053400002B23D17B69D3F80C22FB68DB431A40E0
:100544007B69C3F80C223B685A693B68DB68190471
:100554003B685B689BB219437B69483243F83210AD
:100564003B685B693A68926811043A68126892B20F
:100574000A4379694833DB000B445A603B68DB6902
:10058400012B22D17B69D3F80C22FB681A437B69C7
:10059400C3F80C223B685A693B681B6819043B6822
:1005A4005B689BB219437B69483243F832103B685D
:1005B4005B693A68926811043A68D26892B20A4355
:1005C40079694833DB000B445A603B689B69002B14
:1005D40009D17B69D3F80422FB68DB431A407B69A9
:1005E400C3F8042207E07B69D3F80422FB681A43AA
:1005F4007B69C3F804223B681B69002B09D17B6922
:10060400D3F81422FB68DB431A407B69C3F8142235
:1006140007E07B69D3F81422FB681A437B69C3F8AB
:1006240014223B681B6A012B07D17B69D3F81C2277
:10063400FB681A437B69C3F81C227B69D3F8003238
:1006440023F001027B69C3F80022002306E07B68E3
:100654005B6A43F480227B685A62012318461C3784
:10066400BD465DF8047B704780B584B000AF786008
:100674007B6893F82030DBB2012B2ED17B680222F9
:1006840083F820207B681B687A681268126822F05D
:1006940001021A60FFF7F6FDF86012E0FFF7F2FDC1
:1006A4000246FB68D31A0A2B0BD97B685B6A43F4B6
:1006B40000327B685A627B68052283F8202001237C
:1006C40012E07B681B685B6803F00103002BE5D133
:1006D4007B6800225A62002306E07B685B6A43F46D
:1006E40000227B685A62012318461037BD4680BD3C
:1006F40080B489B000AFF860B9607A603B60FB6891
:1007040093F82030FB77FB681B689B68BB61FB7F19
:10071400012B03D0FB7F022B40F0B480BB6903F0B4
:100724008063002B0AD1BB6903F00063002B05D161
:10073400BB6903F08053002B00F09C80BB691B0E47
:1007440003F003037B617B69022B07D9FB685B6AB7
:1007540043F40002FB685A6201239AE001227B6998
:100764009A403B681A60BB689B68002B0DD1FB68FC
:100774001968BB681B685A05BB68DB681A437B6948
:1007840018331B010B441A600FE0FB681968BB683F
:100794005B68DA00BB689B681A43BB68DB681A4372
:1007A4007B6918331B010B441A60FB681968BB682A
:1007B4001A697B6918331B010B4404331A60BB6844
:1007C4001B7D012B11D1FB681968FB681A687B69D2
:1007D40018331B01134404331B6843F480727B6990
:1007E40018331B010B4404331A60FB6819687B68D7
:1007F40007331B781A067B6806331B781B041A43DD
:100804007B6805331B781B0213437A680432127821
:100814001A437B691B010B4403F5C6731A60FB681A
:1008240019687B6803331B781A067B6802331B78CC
:100834001B041A437B6801331B781B0213437A6839
:1008440012781A437B691B010B4403F5C4731A60C5
:10085400FB681968FB681A687B6918331B01134429
:100864001B6843F001027B6918331B010B441A60B7
:1008740000230EE0FB685B6A43F40012FB685A62D3
:10088400012306E0FB685B6A43F48022FB685A623A
:10089400012318462437BD465DF8047B704780B4B5
:1008A40087B000AFF860B9607A603B60FB6893F88A
:1008B4002030FB75FB7D012B03D0FB7D022B40F028
:1008C400F480BB68002B0ED1FB681B68DB6803F067
:1008D4000303002B16D1FB685B6A43F40012FB6828
:1008E4005A620123E8E0FB681B681B6903F00303F9
:1008F400002B07D1FB685B6A43F40012FB685A6261
:100904000123D9E0FB681A68BB681B331B0113443D
:100914001B6803F004027B689A607B689B68002B69
:100924000CD1FB681A68BB681B331B0113441B689A
:100934005B0DC3F30A027B681A600BE0FB681A685C
:10094400BB681B331B0113441B68DB0823F06042A4
:100954007B685A60FB681A68BB681B331B0113442D
:100964001B685B0803F001027B68DA60FB681A68A5
:10097400BB681B331B01134404331B6803F00F02D1
:100984007B681A61FB681A68BB681B331B0113443C
:1009940004331B681B0ADAB27B689A61FB681A6825
:1009A400BB681B331B01134404331B681B0C9AB232
:1009B4007B685A61FB681A68BB681B01134403F522
:1009C400DC731B68DAB23B681A703B680133FA685F
:1009D4001168BA6812010A4402F5DC721268120A3C
:1009E400D2B21A703B680233FA681168BA6812010D
:1009F4000A4402F5DC721268120CD2B21A703B6817
:100A04000333FA681168BA6812010A4402F5DC7209
:100A14001268120ED2B21A703B680433FA68116875
:100A2400BA6812010A4402F5DE721268D2B21A7070
:100A34003B680533FA681168BA6812010A4402F582
:100A4400DE721268120AD2B21A703B680633FA6870
:100A54001168BA6812010A4402F5DE721268120CB7
:100A6400D2B21A703B680733FA681168BA68120187
:100A74000A4402F5DE721268120ED2B21A70BB6812
:100A8400002B08D1FB681B68FA681268D26842F030
:100A94002002DA6007E0FB681B68FA6812681269D2
:100AA40042F020021A61002306E0FB685B6A43F40B
:100AB4008022FB685A62012318461C37BD465DF844
:100AC400047B704780B485B000AF786039607B6880
:100AD40093F82030FB73FB7B012B02D0FB7B022BB2
:100AE40009D17B681B687A68126851693A680A43BD
:100AF4005A61002306E07B685B6A43F480227B68CA
:100B04005A62012318461437BD465DF8047B7047CA
:100B140080B58AB000AF786000237B627B681B6875
:100B24005B693B627B681B685B68FB617B681B6875
:100B34009B68BB617B681B68DB687B617B681B68A7
:100B44001B693B617B681B689B69FB603B6A03F024
:100B54000103002B7CD0BB6903F00103002B23D0DD
:100B64007B681B6801229A60BB6903F00203002BB7
:100B740003D0786800F07DF916E0BB6903F0040344
:100B8400002B04D07B6A43F400637B620CE0BB69F6
:100B940003F00803002B04D07B6A43F480537B6288
:100BA40002E0786800F083F9BB6903F48073002BDA
:100BB40024D07B681B684FF480729A60BB6903F48D
:100BC4000073002B03D0786800F05DF916E0BB6970
:100BD40003F48063002B04D07B6A43F400537B62EC
:100BE4000CE0BB6903F40063002B04D07B6A43F47C
:100BF40080437B6202E0786800F063F9BB6903F428
:100C04008033002B24D07B681B684FF480329A60B9
:100C1400BB6903F40033002B03D0786800F03DF97E
:100C240016E0BB6903F48023002B04D07B6A43F4F1
:100C340000437B620CE0BB6903F40023002B04D067
:100C44007B6A43F480337B6202E0786800F043F906
:100C54003B6A03F00803002B0CD07B6903F01003FC
:100C6400002B07D07B6A43F400737B627B681B68AC
:100C74001022DA603B6A03F00403002B0BD07B697B
:100C840003F00803002B06D07B681B680822DA6097
:100C9400786800F02AF93B6A03F00203002B09D0BC
:100CA4007B681B68DB6803F00303002B02D07868C1
:100CB40002F05AFD3B6A03F04003002B0CD03B6961
:100CC40003F01003002B07D07B6A43F480637B623C
:100CD4007B681B6810221A613B6A03F02003002B17
:100CE4000BD03B6903F00803002B06D07B681B681C
:100CF40008221A61786800F00CF93B6A03F01003CB
:100D0400002B09D07B681B681B6903F00303002BCD
:100D140002D0786800F0F3F83B6A03F40033002B48
:100D24000BD0FB6903F01003002B06D07B681B6813
:100D340010225A60786800F0F6F83B6A03F48033B6
:100D4400002B0BD0FB6903F00803002B06D07B6853
:100D54001B6808225A60786800F0EFF83B6A03F4D5
:100D64000043002B75D0FB6903F00403002B6CD007
:100D74003B6A03F48073002B08D0FB6803F0010383
:100D8400002B03D07B6A43F001037B623B6A03F4CC
:100D94000073002B08D0FB6803F00203002B03D080
:100DA4007B6A43F002037B623B6A03F48063002B9B
:100DB40008D0FB6803F00403002B03D07B6A43F0E4
:100DC40004037B623B6A03F40063002B3DD0FB68A1
:100DD40003F07003002B38D0FB6803F07003302B52
:100DE40017D0302B04D8102B09D0202B0CD024E0A2
:100DF400502B18D0602B1BD0402B0FD01DE07B6AEA
:100E040043F008037B6218E07B6A43F010037B62C3
:100E140013E07B6A43F020037B620EE07B6A43F0BD
:100E240040037B6209E07B6A43F080037B6204E059
:100E34007B6A43F480737B6200BF7B681B687A68BB
:100E44001268926922F070029A617B681B6804221E
:100E54005A607B6A002B08D07B685A6A7B6A1A4303
:100E64007B685A62786800F072F800BF2837BD4684
:100E740080BD80B483B000AF786000BF0C37BD463E
:100E84005DF8047B704780B483B000AF786000BF26
:100E94000C37BD465DF8047B704780B483B000AF67
:100EA400786000BF0C37BD465DF8047B704780B4A2
:100EB40083B000AF786000BF0C37BD465DF8047B9B
:100EC400704780B483B000AF786000BF0C37BD4674
:100ED4005DF8047B704780B483B000AF786000BFD6
:100EE4000C37BD465DF8047B704780B483B000AF17
:100EF400786000BF0C37BD465DF8047B704780B452
:100F040083B000AF786000BF0C37BD465DF8047B4A
:100F1400704780B483B000AF786000BF0C37BD4623
:100F24005DF8047B704780B483B000AF786000BF85
:100F34000C37BD465DF8047B704780B483B000AFC6
:100F4400786000BF0C37BD465DF8047B704780B401
:100F540083B000AF786000BF0C37BD465DF8047BFA
:100F64007047000080B485B000AF78607B6803F000
:100F74000703FB600C4BDB68BB60BA684FF6FF03EA
:100F84001340BB60FB681A02BB68134343F0BF63A2
:100F940043F40033BB60044ABB68D36000BF14371A
:100FA400BD465DF8047B704700ED00E080B400AFFF
:100FB400044BDB681B0A03F007031846BD465DF8C3
:100FC400047B704700ED00E080B483B000AF0346BB
:100FD400FB71094997F907305B09FA7902F01F029E
:100FE400012000FA02F241F8232000BF0C37BD466D
:100FF4005DF8047B704700BF00E100E080B483B07B
:1010040000AF03463960FB7197F90730002B0BDA08
:101014000D49FB7903F00F03043B3A68D2B2120185
:10102400D2B20B441A7609E0084997F907303A68B6
:10103400D2B21201D2B20B4483F8002300BF0C37A2
:10104400BD465DF8047B704700ED00E000E100E080
:1010540080B489B000AFF860B9607A60FB6803F0CF
:101064000703FB61FB69C3F10703042B28BF0423B7
:10107400BB61FB690433062B02D9FB69033B00E027
:1010840000237B610122BB6902FA03F35A1EBB6889
:101094001A407B699A4001217B6901FA03F3591EC6
:1010A4007B680B40134318462437BD465DF8047B28
:1010B4007047000080B582B000AF78607B68013B68
:1010C400B3F1807F01D301230FE00A4A7B68013B1F
:1010D40053600F214FF0FF30FFF790FF054B0022C4
:1010E4009A60044B07221A60002318460837BD464D
:1010F40080BD00BF10E000E080B582B000AF786032
:101104007868FFF72FFF00BF0837BD4680BD80B564
:1011140086B000AF0346B9607A60FB7300237B613D
:10112400FFF744FF78617A68B9687869FFF790FF40
:10113400024697F90F3011461846FFF75FFF00BFCC
:101144001837BD4680BD80B582B000AF0346FB7141
:1011540097F907301846FFF737FF00BF0837BD4639
:1011640080BD80B582B000AF78607868FFF7A2FFD9
:10117400034618460837BD4680BD000080B487B0DA
:1011840000AF7860396000237B610023FB6000239B
:101194003B6160E13B681A6801217B6901FA03F352
:1011A4001340FB60FB68002B00F052813B685B68D6
:1011B400022B03D03B685B68122B23D17B69DA08CE
:1011C4007B68083253F822303B617B6903F00703E4
:1011D4009B000F2202FA03F3DB433A6913403B619D
:1011E4003B681A697B6903F007039B0002FA03F367
:1011F4003A6913433B617B69DA087B6808323969D1
:1012040043F822107B681B683B617B695B00032207
:1012140002FA03F3DB433A6913403B613B685B68C2
:1012240003F003027B695B0002FA03F33A69134398
:101234003B617B683A691A603B685B68012B0BD0A1
:101244003B685B68022B07D03B685B68112B03D0BB
:101254003B685B68122B30D17B689B683B617B6980
:101264005B00032202FA03F3DB433A6913403B6158
:101274003B68DA687B695B0002FA03F33A6913435B
:101284003B617B683A699A607B685B683B610122D9
:101294007B6902FA03F3DB433A6913403B613B6821
:1012A4005B681B0903F001027B6902FA03F33A69E4
:1012B40013433B617B683A695A607B68DB683B6136
:1012C4007B695B00032202FA03F3DB433A691340B0
:1012D4003B613B689A687B695B0002FA03F33A69F5
:1012E40013433B617B683A69DA603B685B6803F0EF
:1012F4008053002B00F0AC805E4A5E4B9B6943F048
:10130400010393615B4B9B6903F00103BB60BB6802
:10131400594A7B699B08023352F823303B617B694D
:1013240003F003039B000F2202FA03F3DB433A6941
:1013340013403B617B68B3F1904F25D07B684F4AE3
:1013440093421FD07B684E4A934219D07B684D4A22
:10135400934213D07B684C4A93420DD07B684B4A2E
:10136400934207D07B684A4A934201D106230CE09A
:1013740007230AE0052308E0042306E0032304E02E
:10138400022302E0012300E000237A6902F0030251
:10139400920093403A6913433B6137497B699B0848
:1013A40002333A6941F823203A4B1B683B61FB68DE
:1013B400DB433A6913403B613B685B6803F4803369
:1013C400002B03D03A69FB6813433B61314A3B6904
:1013D4001360304B5B683B61FB68DB433A69134045
:1013E4003B613B685B6803F40033002B03D03A692C
:1013F400FB6813433B61274A3B695360254B9B6859
:101404003B61FB68DB433A6913403B613B685B68C3
:1014140003F48013002B03D03A69FB6813433B6148
:101424001C4A3B6993601B4BDB683B61FB68DB43F5
:101434003A6913403B613B685B6803F40013002B7B
:1014440003D03A69FB6813433B61124A3B69D3609A
:101454007B6901337B613B681A687B6922FA03F379
:10146400002B7FF497AE00BF1C37BD465DF8047BAC
:10147400704700BF00100240000001400004004813
:1014840000080048000C0048001000480014004800
:10149400001800480004014080B483B000AF7860B5
:1014A4000B467B8013467B707B78002B03D07A88B5
:1014B4007B689A6102E07A887B689A6200BF0C3785
:1014C400BD465DF8047B704780B483B000AF78609C
:1014D4000B467B807B685A697B885A407B685A61DB
:1014E40000BF0C37BD465DF8047B704780B582B001
:1014F40000AF0346FB80084B5A69FB881340002B5E
:1015040006D0054AFB885361FB88184602F0EEF8C2
:1015140000BF0837BD4680BD0004014080B5ADF56D
:10152400007D00AF3B1D18603B1D1B68002B02D1E2
:10153400012300F0DABE3B1D1B681B6803F00103A6
:10154400002B00F06481B04B5B6803F00C03042BA8
:101554000CD0AD4B5B6803F00C03082B5AD1AA4B9B
:101564005B6803F4C033B3F5803F53D14FF40033C9
:10157400C7F8F431D7F8F43193FAA3F3C7F8F0318C
:10158400D7F8F031B3FA83F3DBB25B09DBB243F093
:101594000103DBB2012B02D19B4B1B6815E04FF416
:1015A4000033C7F8EC31D7F8EC3193FAA3F3C7F85A
:1015B400E8314FF40033C7F8E431D7F8E43193FA53
:1015C400A3F3C7F8E031904B5B6A4FF40032C7F8DD
:1015D400DC21D7F8DC2192FAA2F2C7F8D821D7F897
:1015E400D821B2FA82F252B242F0200252B2D2B2FE
:1015F40002F01F02012101FA02F21340002B00F055
:1016040005813B1D1B685B68002B40F0FF800123B4
:1016140000F06BBE3B1D1B685B68B3F5803F06D1D1
:10162400794A794B1B6843F48033136030E03B1DE7
:101634001B685B68002B0CD1734A734B1B6823F443
:1016440080331360704A704B1B6823F4802313604B
:101654001EE03B1D1B685B68B3F5A02F0CD16A4AE2
:10166400694B1B6843F480231360674A664B1B680D
:1016740043F4803313600BE0634A634B1B6823F429
:1016840080331360604A604B1B6823F4802313602B
:101694003B1D1B685B68002B5AD0FEF7F3FDC7F8AF
:1016A400F8010AE0FEF7EEFD0246D7F8F831D31A46
:1016B400642B02D9032300F018BE4FF40033C7F89B
:1016C400D431D7F8D43193FAA3F3C7F8D031D7F88B
:1016D400D031B3FA83F3DBB25B09DBB243F001032D
:1016E400DBB2012B02D1484B1B6815E04FF40033E9
:1016F400C7F8CC31D7F8CC3193FAA3F3C7F8C83183
:101704004FF40033C7F8C431D7F8C43193FAA3F3C4
:10171400C7F8C0313C4B5B6A4FF40032C7F8BC21B8
:10172400D7F8BC2192FAA2F2C7F8B821D7F8B821A9
:10173400B2FA82F252B242F0200252B2D2B202F0B3
:101744001F02012101FA02F21340002BAAD05EE02D
:10175400FEF798FDC7F8F8010AE0FEF793FD02468C
:10176400D7F8F831D31A642B02D9032300F0BDBD96
:101774004FF40033C7F8B431D7F8B43193FAA3F374
:10178400C7F8B031D7F8B031B3FA83F3DBB25B09F1
:10179400DBB243F00103DBB2012B02D11A4B1B680D
:1017A40015E04FF40033C7F8AC31D7F8AC3193FAF5
:1017B400A3F3C7F8A8314FF40033C7F8A431D7F81E
:1017C400A43193FAA3F3C7F8A0310F4B5B6A4FF42B
:1017D4000032C7F89C21D7F89C2192FAA2F2C7F8EC
:1017E4009821D7F89821B2FA82F252B242F020023C
:1017F40052B2D2B202F01F02012101FA02F21340E6
:10180400002BAAD103E000BF0010024000BF3B1D23
:101814001B681B6803F00203002B00F07181D04B9E
:101824005B6803F00C03002B0CD0CD4B5B6803F01A
:101834000C03082B6ED1CA4B5B6803F4C033B3F5B9
:10184400004F67D10223C7F89431D7F8943193FA43
:10185400A3F3C7F89031D7F89031B3FA83F3DBB22E
:101864005B09DBB243F00103DBB2012B02D1BC4BB9
:101874001B6813E00223C7F88C31D7F88C3193FA34
:10188400A3F3C7F888310223C7F88431D7F8843129
:1018940093FAA3F3C7F88031B14B5B6A0222C7F80D
:1018A4007C21D7F87C2192FAA2F2C7F87821D7F8E4
:1018B4007821B2FA82F252B242F0200252B2D2B28B
:1018C40002F01F02012101FA02F21340002B07D09B
:1018D4003B1D1B68DB68012B02D0012300F005BD12
:1018E4009F489F4B1B6823F0F8023B1D1B68196936
:1018F400F823C7F87431D7F8743193FAA3F3C7F80F
:101904007031D7F87031B3FA83F301FA03F3134358
:101914000360F5E03B1D1B68DB68002B00F085804D
:101924000123C7F86C31D7F86C3193FAA3F3C7F8E5
:101934006831D7F86831B3FA83F303F1845303F5BC
:1019440084139B001A4601231360FEF79BFCC7F81F
:10195400F8010AE0FEF796FC0246D7F8F831D31AEC
:10196400022B02D9032300F0C0BC0223C7F8643160
:10197400D7F8643193FAA3F3C7F86031D7F860312C
:10198400B3FA83F3DBB25B09DBB243F00103DBB2EE
:10199400012B02D1724B1B6813E00223C7F85C31A0
:1019A400D7F85C3193FAA3F3C7F858310223C7F888
:1019B4005431D7F8543193FAA3F3C7F85031684B34
:1019C4005B6A0222C7F84C21D7F84C2192FAA2F2A2
:1019D400C7F84821D7F84821B2FA82F252B242F04D
:1019E400200252B2D2B202F01F02012101FA02F225
:1019F4001340002BAED05A48594B1B6823F0F80211
:101A04003B1D1B681969F823C7F84431D7F84431E2
:101A140093FAA3F3C7F84031D7F84031B3FA83F30C
:101A240001FA03F3134303606AE00123C7F83C316E
:101A3400D7F83C3193FAA3F3C7F83831D7F83831E3
:101A4400B3FA83F303F1845303F584139B001A461A
:101A540000231360FEF716FCC7F8F8010AE0FEF74E
:101A640011FC0246D7F8F831D31A022B02D903230A
:101A740000F03BBC0223C7F83431D7F8343193FA71
:101A8400A3F3C7F83031D7F83031B3FA83F3DBB2BC
:101A94005B09DBB243F00103DBB2012B02D1304B13
:101AA4001B6813E00223C7F82C31D7F82C3193FAC2
:101AB400A3F3C7F828310223C7F82431D7F8243117
:101AC40093FAA3F3C7F82031254B5B6A0222C7F8C7
:101AD4001C21D7F81C2192FAA2F2C7F81821D7F8D2
:101AE4001821B2FA82F252B242F0200252B2D2B2B9
:101AF40002F01F02012101FA02F21340002BAED1C1
:101B04003B1D1B681B6803F00803002B00F0D78003
:101B14003B1D1B685B69002B66D00123C7F8143199
:101B2400D7F8143193FAA3F3C7F81031D7F810316A
:101B3400B3FA83F31A460B4B13449B001A46012352
:101B44001360FEF79FFBC7F8F8010DE0FEF79AFB60
:101B54000246D7F8F831D31A022B05D90323C4E37C
:101B640000100240208190100223C7F80C31D7F8EE
:101B74000C3193FAA3F3C7F808310223C7F80431F0
:101B8400D7F8043193FAA3F207F580731A6007F1CA
:101B9400FC0302221A6007F1FC031B6893FAA3F208
:101BA40007F1F8031A60A54B5A6A07F1F4030221FE
:101BB400196007F1F4031B6893FAA3F107F1F0032A
:101BC400196007F1F0031B68B3FA83F35BB243F0C7
:101BD40060035BB2DBB203F01F03012101FA03F3DC
:101BE4001340002BB2D06AE007F1EC0301221A6023
:101BF40007F1EC031B6893FAA3F207F1E8031A60F8
:101C040007F1E8031B68B3FA83F31A468C4B1344B9
:101C14009B001A4600231360FEF734FBC7F8F80153
:101C240009E0FEF72FFB0246D7F8F831D31A022B4E
:101C340001D9032359E307F1E40302221A6007F1EF
:101C4400E4031B6893FAA3F207F1E0031A6007F1B7
:101C5400DC0302221A6007F1DC031B6893FAA3F287
:101C640007F1D8031A6007F1D40302221A6007F1BE
:101C7400D4031B6893FAA3F207F1D0031A606F4BE5
:101C84005A6A07F1CC030221196007F1CC031B68DF
:101C940093FAA3F107F1C803196007F1C8031B689D
:101CA400B3FA83F35BB243F060035BB2DBB203F0DD
:101CB4001F03012101FA03F31340002BB1D13B1D93
:101CC4001B681B6803F00403002B00F059810023F8
:101CD40087F8FF31594BDB6903F08053002B12D195
:101CE400564A564BDB6943F08053D361534BDB694F
:101CF40003F0805207F10C031A6007F10C031B6810
:101D0400012387F8FF314F4B1B6803F48073002BCA
:101D14001AD14C4A4B4B1B6843F480731360FEF793
:101D2400B1FAC7F8F80109E0FEF7ACFA0246D7F8B1
:101D3400F831D31A642B01D90323D6E2414B1B6833
:101D440003F48073002BEFD03B1D1B689B68012BB1
:101D540006D13A4A394B1B6A43F0010313622FE060
:101D64003B1D1B689B68002B0CD1344A334B1B6A08
:101D740023F001031362314A304B1B6A23F004033E
:101D840013621DE03B1D1B689B68052B0CD12B4A7D
:101D94002A4B1B6A43F004031362284A274B1B6A2D
:101DA40043F0010313620BE0244A244B1B6A23F023
:101DB40001031362214A214B1B6A23F004031362BB
:101DC4003B1D1B689B68002B6BD0FEF75BFAC7F8C2
:101DD400F8010BE0FEF756FA0246D7F8F831D31AA9
:101DE40041F28832934201D903237EE207F1C4030E
:101DF40002221A6007F1C4031B6893FAA3F207F1E5
:101E0400C0031A6007F1BC0302221A6007F1BC0385
:101E14001B6893FAA3F207F1B8031A6007F1B80339
:101E24001B68B3FA83F3DBB25B09DBB243F0020352
:101E3400DBB2022B08D1014B1B6A13E000100240F5
:101E4400208190100070004007F1B40302221A6050
:101E540007F1B4031B6893FAA3F207F1B0031A6005
:101E6400C04B5B6A07F1AC020221116007F1AC02BE
:101E7400126892FAA2F107F1A802116007F1A80210
:101E84001268B2FA82F252B242F0400252B2D2B2B4
:101E940002F01F02012101FA02F21340002B99D033
:101EA40064E0FEF7EFF9C7F8F8010BE0FEF7EAF992
:101EB4000246D7F8F831D31A41F28832934201D955
:101EC400032312E207F1A40302221A6007F1A40318
:101ED4001B6893FAA3F207F1A0031A6007F19C03AD
:101EE40002221A6007F19C031B6893FAA3F207F11C
:101EF40098031A6007F198031B68B3FA83F3DBB203
:101F04005B09DBB243F00203DBB2022B02D1954B37
:101F14001B6A0DE007F1940302221A6007F194038F
:101F24001B6893FAA3F207F190031A608D4B5B6A66
:101F340007F18C020221116007F18C02126892FAF7
:101F4400A2F107F18802116007F188021268B2FA5F
:101F540082F252B242F0400252B2D2B202F01F02F6
:101F6400012101FA02F21340002B9FD197F8FF31AF
:101F7400012B05D17B4A7B4BDB6923F08053D36172
:101F84003B1D1B689B69002B00F0AE81754B5B68A1
:101F940003F00C03082B00F0A5813B1D1B689B6913
:101FA400022B40F01D8107F184034FF080721A6008
:101FB40007F184031B6893FAA3F207F180031A6004
:101FC40007F180031B68B3FA83F303F1845303F529
:101FD40084139B001A4600231360FEF753F9C7F8D5
:101FE400F80109E0FEF74EF90246D7F8F831D31AA2
:101FF400022B01D9032378E107F17C034FF000722F
:102004001A6007F17C031B6893FAA3F207F17803C3
:102014001A6007F178031B68B3FA83F3DBB25B0938
:10202400DBB243F00103DBB2012B02D14D4B1B6841
:102034001BE007F174034FF000721A6007F1740398
:102044001B6893FAA3F207F170031A6007F16C039B
:102054004FF000721A6007F16C031B6893FAA3F245
:1020640007F168031A603F4B5B6A07F164024FF0A3
:102074000071116007F16402126892FAA2F107F18B
:102084006002116007F160021268B2FA82F252B281
:1020940042F0200252B2D2B202F01F02012101FA30
:1020A40002F21340002B9DD12E492E4BDB6A23F004
:1020B4000F023B1D1B685B6A1343CB622948294B03
:1020C4005B6823F476123B1D1B68196A3B1D1B6871
:1020D400DB690B431343436007F15C034FF08072E9
:1020E4001A6007F15C031B6893FAA3F207F1580323
:1020F4001A6007F158031B68B3FA83F303F184539E
:1021040003F584139B001A4601231360FEF7BAF803
:10211400C7F8F80109E0FEF7B5F80246D7F8F83138
:10212400D31A022B01D90323DFE007F154034FF044
:1021340000721A6007F154031B6893FAA3F207F1C3
:1021440050031A6007F150031B68B3FA83F3DBB240
:102154005B09DBB243F00103DBB2012B04D1014B79
:102164001B681DE00010024007F14C034FF00072A1
:102174001A6007F14C031B6893FAA3F207F14803B2
:102184001A6007F144034FF000721A6007F1440328
:102194001B6893FAA3F207F140031A60554B5B6A7C
:1021A40007F13C024FF00071116007F13C02126824
:1021B40092FAA2F107F13802116007F138021268AD
:1021C400B2FA82F252B242F0200252B2D2B202F019
:1021D4001F02012101FA02F21340002B9BD083E07D
:1021E40007F134034FF080721A6007F134031B685F
:1021F40093FAA3F207F130031A6007F130031B6866
:10220400B3FA83F303F1845303F584139B001A4652
:1022140000231360FEF736F8C7F8F80109E0FEF76B
:1022240031F80246D7F8F831D31A022B01D9032327
:102234005BE007F12C034FF000721A6007F12C03E6
:102244001B6893FAA3F207F128031A6007F1280325
:102254001B68B3FA83F3DBB25B09DBB243F001031F
:10226400DBB2012B02D1234B1B681BE007F12403D3
:102274004FF000721A6007F124031B6893FAA3F26B
:1022840007F120031A6007F11C034FF000721A6073
:1022940007F11C031B6893FAA3F207F118031A60F1
:1022A400144B5B6A07F114024FF00071116007F1DF
:1022B4001402126892FAA2F107F11002116007F1F8
:1022C40010021268B2FA82F252B242F0200252B202
:1022D400D2B202F01F02012101FA02F21340002BD4
:1022E4009DD101E0012300E00023184607F50077A3
:1022F400BD4680BD0010024080B59EB000AF78603E
:10230400396000237B677B68002B01D1012364E1E2
:10231400924B1B6803F007023B689A4210D28F4924
:102324008E4B1B6823F007023B6813430B608B4BF7
:102334001B6803F007023B689A4201D001234CE179
:102344007B681B6803F00203002B08D08449844B8C
:102354005B6823F0F0027B689B6813434B607B68E7
:102364001B6803F00103002B00F0DF807B685B68CF
:10237400012B3DD14FF400333B673B6F93FAA3F33A
:10238400FB66FB6EB3FA83F3DBB25B09DBB243F0AB
:102394000103DBB2012B02D1714B1B680FE04FF438
:1023A4000033BB66BB6E93FAA3F37B664FF4003332
:1023B4003B663B6E93FAA3F3FB65694B5B6A4FF490
:1023C4000032BA65BA6D92FAA2F27A657A6DB2FAFF
:1023D40082F252B242F0200252B2D2B202F01F0292
:1023E400012101FA02F21340002B7DD10123F4E014
:1023F4007B685B68022B3DD14FF000733B653B6DFE
:1024040093FAA3F3FB64FB6CB3FA83F3DBB25B09CB
:10241400DBB243F00103DBB2012B02D1504B1B684A
:102424000FE04FF00073BB64BB6C93FAA3F37B64BF
:102434004FF000733B643B6C93FAA3F3FB63484B8C
:102444005B6A4FF00072BA63BA6B92FAA2F27A63D3
:102454007A6BB2FA82F252B242F0200252B2D2B293
:1024640002F01F02012101FA02F21340002B3BD1BA
:102474000123B2E002233B633B6B93FAA3F3FB62B9
:10248400FB6AB3FA83F3DBB25B09DBB243F001030B
:10249400DBB2012B02D1324B1B680DE00223BB627D
:1024A400BB6A93FAA3F37B6202233B623B6A93FA0F
:1024B400A3F3FB612A4B5B6A0222BA61BA6992FAFE
:1024C400A2F27A617A69B2FA82F252B242F020023E
:1024D40052B2D2B202F01F02012101FA02F21340F9
:1024E400002B01D1012378E01D491D4B5B6823F0CB
:1024F40003027B685B6813434B60FDF7C3FE786798
:102504000AE0FDF7BFFE02467B6FD31A41F2883220
:10251400934201D9032360E0114B5B6803F00C0282
:102524007B685B689B009A42EBD10C4B1B6803F001
:1025340007023B689A4215D90849084B1B6823F0E7
:1025440007023B6813430B60044B1B6803F007024C
:102554003B689A4206D001233FE000BF00200240BE
:10256400001002407B681B6803F00403002B08D0B2
:102574001C491C4B5B6823F4E0627B68DB681343F3
:102584004B607B681B6803F00803002B09D01549D6
:10259400144B5B6823F460527B681B69DB001343B4
:1025A4004B6000F025F801460E4B5B6803F0F00227
:1025B400F0233B613B6993FAA3F3FB60FB68B3FA36
:1025C40083F322FA03F3084AD35C21FA03F3074A9C
:1025D40013600020FDF712FE002318467837BD462D
:1025E40080BD00BF00100240D43B0008080000205A
:1025F40080B48BB000AF0023FB610023BB610023D8
:102604007B6200237B6100233B622A4B5B68FB6196
:10261400FB6903F00C03042B02D0082B03D03FE02A
:10262400254B3B623FE0FB6903F470124FF47013D7
:10263400BB60BB6893FAA3F37B607B68B3FA83F354
:1026440022FA03F31D4AD35C7B611A4BDB6A03F065
:102654000F020F233B613B6993FAA3F3FB60FB6812
:10266400B3FA83F322FA03F3154AD35CBB61FB6923
:1026740003F48033002B08D00F4ABB69B2FBF3F399
:102684007A6902FB03F37B6207E00B4ABB69B2FB86
:10269400F3F37A6902FB03F37B627B6A3B6202E039
:1026A400054B3B6200BF3B6A18462C37BD465DF8BC
:1026B400047B70470010024000127A00B43B00080B
:1026C400C43B000880B400AF034B1B681846BD46EA
:1026D4005DF8047B704700BF0800002080B582B01D
:1026E40000AFFFF7EFFF01460B4B5B6803F4E062BA
:1026F4004FF4E0637B607B6893FAA3F33B603B6831
:10270400B3FA83F322FA03F3044AD35C21FA03F302
:1027140018460837BD4680BD00100240E43B00085F
:1027240080B582B000AFFFF7CDFF01460B4B5B686D
:1027340003F460524FF460537B607B6893FAA3F315
:102744003B603B68B3FA83F322FA03F3044AD35C95
:1027540021FA03F318460837BD4680BD0010024035
:10276400E43B000880B592B000AF786000233B647E
:102774000023FB637B681B6803F48033002B00F0A9
:10278400D680002387F847304D4BDB6903F0805334
:10279400002B0ED14A4A4A4BDB6943F08053D36184
:1027A400474BDB6903F08053BB60BB68012387F8A8
:1027B4004730444B1B6803F48073002B18D1414A03
:1027C400404B1B6843F480731360FDF75BFD386472
:1027D40008E0FDF757FD02463B6CD31A642B01D980
:1027E4000323D4E1374B1B6803F48073002BF0D030
:1027F400334B1B6A03F44073FB63FB6B002B00F049
:1028040083807B685B6803F44072FB6B9A427BD0E5
:102814002B4B1B6A23F44073FB634FF480333B63FD
:102824003B6B93FAA3F3FB62FB6AB3FA83F31A4696
:10283400254B13449B001A46012313604FF4803345
:10284400BB63BB6B93FAA3F37B637B6BB3FA83F336
:102854001A461D4B13449B001A4600231360184A62
:10286400FB6B1362FB6B03F00103002B4CD0FDF7F1
:1028740009FD38640AE0FDF705FD02463B6CD31AF6
:1028840041F28832934201D9032380E10223BB62DF
:10289400BB6A93FAA3F37B6202233B623B6A93FA1B
:1028A400A3F3FB61FB69B3FA83F3DBB25B09DBB22D
:1028B40043F00203DBB2022B08D1014B1B6A0DE08B
:1028C4000010024000700040008190100223BB61A0
:1028D400BB6993FAA3F37B619C4B5B6A02223A6166
:1028E4003A6992FAA2F2FA60FA68B2FA82F252B241
:1028F40042F0400252B2D2B202F01F02012101FAA8
:1029040002F21340002BB6D09049904B1B6A23F47B
:1029140040727B685B6813430B6297F84730012B66
:1029240005D18A4A894BDB6923F08053D3617B68E4
:102934001B6803F00103002B08D08449834B1B6BF5
:1029440023F003027B689B6813430B637B681B685B
:1029540003F00203002B08D07C497C4B1B6B23F44F
:1029640040327B68DB6813430B637B681B6803F0AE
:102974000403002B08D07549744B1B6B23F44022CD
:102984007B681B6913430B637B681B6803F020039C
:10299400002B08D06D496D4B1B6B23F010027B6834
:1029A400DB6913430B637B681B6803F40033002B60
:1029B40008D06649654B5B6823F480027B685B6DD5
:1029C40013434B607B681B6803F04003002B08D063
:1029D4005E495E4B1B6B23F020027B681B6A13432A
:1029E4000B637B681B6803F48023002B08D05749D2
:1029F400564B1B6B23F040027B685B6A13430B63EB
:102A04007B681B6803F00803002B08D04F494F4B29
:102A14001B6B23F440127B685B6913430B637B6875
:102A24001B6803F01003002B08D04849474B1B6B6D
:102A340023F440027B689B6913430B637B681B6828
:102A440003F40073002B08D04049404B5B6823F427
:102A540000027B681B6B13434B607B681B6803F0AD
:102A64008003002B08D03949384BDB6A23F4F87211
:102A74007B689B6A1343CB627B681B6803F4807397
:102A8400002B08D03149314BDB6A23F478527B6840
:102A9400DB6A1343CB627B681B6803F48053002B0F
:102AA40008D02A49294B1B6B23F480727B685B6B2B
:102AB40013430B637B681B6803F40053002B08D09B
:102AC4002249224B1B6B23F400727B681B6C13435B
:102AD4000B637B681B6803F48013002B08D01B492D
:102AE4001A4B1B6B23F080727B689B6B13430B6345
:102AF4007B681B6803F40013002B08D01349134BA5
:102B04001B6B23F000727B68DB6B13430B637B68E6
:102B14001B6803F48003002B08D00C490B4B1B6B80
:102B240023F480627B685B6C13430B637B681B68D4
:102B340003F40003002B0BD00449044B1B6B23F458
:102B440000627B689B6C13430B6301E0001002403E
:102B54007B681B6803F08073002B08D00E490E4B72
:102B64001B6B23F400527B68DB6C13430B637B68A1
:102B74001B6803F00073002B08D00749064B1B6B3E
:102B840023F400427B681B6D13430B630023184638
:102B94004837BD4680BD00BF0010024080B582B0FA
:102BA40000AF78607B68002B01D1012343E07B6890
:102BB40093F86930DBB2002B06D17B68002283F8DE
:102BC4006820786800F0B8FE7B68242283F86920C6
:102BD4007B681B687A681268126822F001021A6026
:102BE400786800F02DF80346012B01D1012322E07F
:102BF4007B685B6A002B02D0786800F01FFA7B6860
:102C04001B687A681268526822F490425A607B68A2
:102C14001B687A681268926822F02A029A607B68BC
:102C24001B687A681268126842F001021A607868B8
:102C340000F0A6FA034618460837BD4680BD0000DA
:102C440090B587B000AF78600023FB601023FB755C
:102C540000237B810023BB820023FB747B689A687A
:102C64007B681B691A437B685B691A437B68DB6971
:102C74001343FB607B681A687B681B681968A64B62
:102C84000B40F9680B4313607B681B687A68126811
:102C9400526822F440517A68D2680A435A607B68C9
:102CA4009A697B681B6A1343FB607B681B687A68BC
:102CB4001268926822F43061FA680A439A607B6869
:102CC4001B68964A934221D1954B1B6B03F0030377
:102CD400032B17D801A252F823F000BFF12C0008EF
:102CE400FD2C0008032D0008F72C00080123FB75B8
:102CF400B2E00223FB75AFE00423FB75ACE00823CC
:102D0400FB75A9E01023FB7500BFA5E07B681B6879
:102D1400844A934223D1824B1B6B03F44033B3F5B3
:102D2400803F12D0B3F5803F02D8002B07D012E0C9
:102D3400B3F5003F0CD0B3F5403F03D00BE00023C4
:102D4400FB7589E00223FB7586E00423FB7583E0B1
:102D54000823FB7580E01023FB7500BF7CE07B68D3
:102D64001B68714A934223D16D4B1B6B03F44023C0
:102D7400B3F5802F12D0B3F5802F02D8002B07D0E3
:102D840012E0B3F5002F0CD0B3F5402F03D00BE0C5
:102D94000023FB7560E00223FB755DE00423FB75F3
:102DA4005AE00823FB7557E01023FB7500BF53E07E
:102DB4007B681B685D4A934223D1594B1B6B03F418
:102DC4004013B3F5801F12D0B3F5801F02D8002B37
:102DD40007D012E0B3F5001F0CD0B3F5401F03D0A9
:102DE4000BE00023FB7537E00223FB7534E004237A
:102DF400FB7531E00823FB752EE01023FB7500BF43
:102E04002AE07B681B684A4A934223D1444B1B6BDC
:102E140003F44003B3F5800F12D0B3F5800F02D84A
:102E2400002B07D012E0B3F5000F0CD0B3F5400F20
:102E340003D00BE00023FB750EE00223FB750BE0CF
:102E44000423FB7508E00823FB7505E01023FB75DC
:102E540000BF01E01023FB757B68DB69B3F5004F0D
:102E64007DD1FB7D082B65D801A252F823F000BF69
:102E7400992E0008B52E0008D12E0008392F00081D
:102E8400EB2E0008392F0008392F0008392F0008CD
:102E9400072F0008FFF722FC03465A007B685B6893
:102EA4005B081A447B685B68B2FBF3F3BB8244E0C3
:102EB400FFF736FC03465A007B685B685B081A44DC
:102EC4007B685B68B2FBF3F3BB8236E07B685B68CC
:102ED4005B0803F5740303F510537A685268B3FB77
:102EE400F2F3BB8229E0FFF783FB03465A007B68B9
:102EF4005B685B081A447B685B68B2FBF3F3BB82D4
:102F04001BE07B685B685B0803F580327B685B6869
:102F1400B2FBF3F3BB8210E0F369FFEF003801402A
:102F2400001002400044004000480040004C0040B3
:102F3400005000400123FB7400BFBB8A23F00F0341
:102F44007B81BB8A5B109BB203F007039AB27B8937
:102F540013437B817B681B687A89DA6069E0FB7DB7
:102F6400082B63D801A252F823F000BF952F000864
:102F7400B52F0008D52F000831300008F52F0008C0
:102F840031300008313000083130000815300008B5
:102F94007B681C68FFF7A2FB02467B685B685B08E2
:102FA4001A447B685B68B2FBF3F39BB2E36040E0D6
:102FB4007B681C68FFF7B4FB02467B685B685B08B0
:102FC4001A447B685B68B2FBF3F39BB2E36030E0C6
:102FD4007B681A687B685B685B0803F5F40303F598
:102FE400905379684968B3FBF1F39BB2D36020E056
:102FF4007B681C68FFF7FCFA02467B685B685B0829
:103004001A447B685B68B2FBF3F39BB2E36010E0A5
:103014007B681B687A685268520802F500417A6836
:103024005268B1FBF2F292B2DA6002E00123FB745F
:1030340000BFFB7C18461C37BD4690BD80B483B0EE
:1030440000AF78607B685B6A03F00103002B0AD051
:103054007B681B687A681268526822F400317A68C7
:10306400926A0A435A607B685B6A03F00203002B8E
:103074000AD07B681B687A681268526822F480312F
:103084007A68D26A0A435A607B685B6A03F0040375
:10309400002B0AD07B681B687A681268526822F495
:1030A40080217A68126B0A435A607B685B6A03F07A
:1030B4000803002B0AD07B681B687A681268526880
:1030C40022F400417A68526B0A435A607B685B6A57
:1030D40003F01003002B0AD07B681B687A6812681F
:1030E400926822F480517A68926B0A439A607B68F2
:1030F4005B6A03F02003002B0AD07B681B687A68A4
:103104001268926822F400517A68D26B0A439A607A
:103114007B685B6A03F04003002B1AD07B681B6852
:103124007A681268526822F480117A68126C0A4331
:103134005A607B681B6CB3F5801F0AD17B681B68DF
:103144007A681268526822F4C0017A68526C0A43A1
:103154005A607B685B6A03F08003002B0AD07B68AB
:103164001B687A681268526822F400217A68926CAB
:103174000A435A6000BF0C37BD465DF8047B7047B4
:1031840080B586B002AF78600023FB607B680022C4
:10319400DA66FDF777F8F8607B681B681B6803F054
:1031A4000803082B0ED16FF07E430093FB680022C6
:1031B4004FF40011786800F02CF80346002B01D07E
:1031C400032322E07B681B681B6803F00403042BC1
:1031D4000ED16FF07E430093FB6800224FF4800110
:1031E400786800F016F80346002B01D003230CE0A6
:1031F4007B68202283F869207B68202283F86A2078
:103204007B68002283F86820002318461037BD46E7
:1032140080BD80B584B000AFF860B9603B601346F0
:10322400FB712CE0BB69B3F1FF3F28D0BB69002BD5
:1032340007D0FDF727F802463B68D21ABB699A42C9
:103244001DD9FB681B68FA681268126822F4D072F0
:103254001A60FB681B68FA681268926822F001021F
:103264009A60FB68202283F86920FB68202283F897
:103274006A20FB68002283F8682003230FE0FB68C0
:103284001B68DA69BB681A40BB689A420CBF012309
:103294000023DBB21A46FB799A42C3D000231846B6
:1032A4001037BD4680BD000080B582B000AFFCF78A
:1032B4008FFF00F061F800F06BF900F0BBF800F04C
:1032C40037F9254B1B78002B1FD0234B1B78012B80
:1032D4001BD0214B1B78BB71204B1B78BA799A42C7
:1032E40006D0BB79184600F057FA1C4ABB79137014
:1032F4000023FB7106E0FB79174A0021D154FB79C6
:103304000133FB71FB79072BF5D900F079FA144BE3
:103314001B78002BD5D020214FF09040FEF7D4F835
:103324004FF49670FCF7BAFF0E4B1A780E4B1A70D6
:103334000E4B0D4A0E490F48FDF7DAF90346002BF0
:1033440001D000F081FA20214FF09040FEF7BCF844
:10335400034B00221A70B4E7640000202900002007
:1033640028000020050000205800002060000020F4
:10337400DC0000203000002080B5A6B000AF07F1CB
:10338400700328220021184600F0FEFB07F15C03BD
:1033940000221A605A609A60DA601A613B1D582252
:1033A4000021184600F0F0FB02233B670123FB6772
:1033B4001023C7F880300223C7F888304FF4004345
:1033C400C7F88C304FF4E013C7F890300023C7F8E7
:1033D400943007F170031846FEF7A0F80346002B5B
:1033E40001D000F031FA0F23FB6502233B66002372
:1033F4007B664FF48063BB660023FB6607F15C03C6
:1034040002211846FEF778FF0346002B01D000F096
:103414001BFA02237B6000233B613B1D1846FFF728
:10342400A1F90346002B01D000F00EFA00BF983733
:10343400BD4680BD80B58AB000AF3A4B3A4A1A60A7
:10344400384B20225A60374B00229A60354B0022B9
:10345400DA60344B4FF4A0221A61324B4FF48012DD
:103464005A61304B00221A762E4B00225A762D4B8D
:1034740000229A762B4B0022DA762A4B00221A7706
:10348400284B00225A772748FCF72AFF0346002BD3
:1034940001D000F0D9F900237B610023BB61012333
:1034A400FB6100233B6000237B600023BB6000239F
:1034B400FB6000233B6101233B6200237B623B46AC
:1034C40019461848FDF706F80346002B01D000F012
:1034D400BBF91448FDF7C8F80346002B01D000F0EF
:1034E400B3F902210F48FDF7EDFA0346002B01D092
:1034F40000F0AAF90D4B00229A600C4B00225A608E
:103504000A4B40F202221A60084B0022DA60074B91
:1035140001221A61054B00221A7500BF2837BD46E7
:1035240080BD00BF3000002000640040DC000020AB
:1035340080B500AF144B154A1A60134B4FF4164272
:103544005A60114B00229A600F4B0022DA600E4B36
:1035540000221A610C4B0C225A610B4B00229A6117
:10356400094B0022DA61084B00221A62064B002242
:103574005A620548FFF712FB0346002B01D000F006
:1035840063F900BF80BD00BF6C0000200044004010
:1035940080B58AB000AF07F1140300221A605A60A4
:1035A4009A60DA601A614C4A4B4B5B6943F400231E
:1035B4005361494B5B6903F400233B613B69464A11
:1035C400454B5B6943F480035361434B5B6903F4EC
:1035D4008003FB60FB68404A3F4B5B6943F4003364
:1035E40053613D4B5B6903F40033BB60BB683A4AEB
:1035F400394B5B6943F480235361374B5B6903F4B4
:1036040080237B607B6800220E213448FDF744FF51
:10361400002220214FF09040FDF73EFF00220721B9
:103624002F48FDF739FF4FF400537B612D4BBB61ED
:103634000023FB6107F1140319462848FDF79EFD9A
:103644000E237B610123BB610023FB6100233B62EA
:1036540007F1140319462148FDF790FD20237B61EF
:103664000123BB610023FB6100233B6207F11403C8
:1036740019464FF09040FDF781FD07237B6101233C
:10368400BB610023FB6100233B6207F1140319466D
:103694001348FDF773FD4FF4E0737B61124BBB617C
:1036A4000123FB6107F1140319460C48FDF766FD7D
:1036B400002200211720FDF72AFD1720FDF743FD06
:1036C400002200212820FDF722FD2820FDF73BFDE4
:1036D40000BF2837BD4680BD0010024000080048E6
:1036E40000040048000011100000211080B582B0D1
:1036F40000AF0346FB80FB88B3F5807F0BD1174BEB
:1037040001221A70164B07221A700122082115484B
:10371400FDF7C2FE1DE0FB88B3F5005F0BD10F4B34
:1037240001221A700E4B06221A70012204210D4840
:10373400FDF7B2FE0DE0FB88402B0AD1074B0122B6
:103744001A70074B05221A70012202210548FDF761
:10375400A3FE00BF0837BD4680BD00BF280000207F
:10376400050000200008004880B582B000AF7860F2
:10377400074B084A00217868FDF791F80346002BAF
:1037840001D000F061F800BF0837BD4680BD00BF1E
:1037940064000020F400002080B582B000AF03462E
:1037A400FB71FB79062B0FD0072B18D0052B00D00B
:1037B40020E0002206211148FDF76EFE01220121BE
:1037C4000E48FDF769FE15E0002205210B48FDF7C0
:1037D40063FE012202210948FDF75EFE0AE0002291
:1037E40003210648FDF758FE012204210348FDF792
:1037F40053FE00BF00BF0837BD4680BD000400482B
:1038040080B500AF0E4B1B78062B0AD0072B0ED0C9
:10381400052B00D011E0002202210A48FDF73CFEEE
:103824000BE0002204210748FDF736FE05E00022E4
:1038340008210448FDF730FE00BF00BF80BD00BF73
:10384400290000200008004880B400AF00BFBD4636
:103854005DF8047B7047000080B582B000AF0F4A6A
:103864000E4B9B6943F0010393610C4B9B6903F07E
:1038740001037B607B68094A084BDB6943F0805392
:10388400D361064BDB6903F080533B603B68072040
:10389400FDF732FC00BF0837BD4680BD0010024072
:1038A40080B58AB000AF786007F1140300221A6073
:1038B4005A609A60DA601A617B681B681C4A9342FA
:1038C40031D11C4A1B4BDB6943F00073D361194BA4
:1038D400DB6903F000733B613B69164A154B5B6976
:1038E40043F400335361134B5B6903F40033FB600F
:1038F400FB684FF4C0537B610223BB610023FB616F
:1039040003233B6209237B6207F1140319464FF03A
:103914009040FDF733FC002200211420FDF7F7FB53
:103924001420FDF710FC00BF2837BD4680BD00BF42
:10393400006400400010024080B58AB000AF786097
:1039440007F1140300221A605A609A60DA601A615F
:103954007B681B68174A934228D1174A164BDB69C8
:1039640043F40033D361144BDB6903F400333B614C
:103974003B69114A104B5B6943F4003353610E4BAE
:103984005B6903F40033FB60FB680C237B61022357
:10399400BB610023FB6100233B6207237B6207F1C9
:1039A400140319464FF09040FDF7E8FB00BF283799
:1039B400BD4680BD004400400010024080B400AF0A
:1039C40000BFBD465DF8047B704780B400AFFEE7DE
:1039D40080B400AFFEE780B400AFFEE780B400AF70
:1039E400FEE780B400AF00BFBD465DF8047B7047BE
:1039F40080B400AF00BFBD465DF8047B704780B45F
:103A040000AF00BFBD465DF8047B704780B500AFD2
:103A1400FCF724FC00BF80BD80B500AF0248FDF771
:103A240077F800BF80BD00BF3000002080B500AF34
:103A34004020FDF75BFD8020FDF758FD4FF48070BA
:103A4400FDF754FD00BF80BD80B500AF4FF40050BA
:103A5400FDF74CFD00BF80BD80B400AF1F4A1F4B73
:103A6400D3F8883043F47003C2F888301C4A1C4BE6
:103A74001B6843F0010313601949194B5A68194B29
:103A840013404B60164A164B1B6823F0847323F4CF
:103A940080331360124A124B1B6823F48023136093
:103AA4000F4A0F4B5B6823F4FE0353600C4A0C4B24
:103AB400DB6A23F00F03D3620949094B1A6B0A4BE3
:103AC40013400B63064B00229A60044B4FF00062D4
:103AD4009A6000BFBD465DF8047B704700ED00E0CE
:103AE400001002400CC07FF8CCFC00FFDFF834D09B
:103AF400002103E00C4B5B58435004310B480C4B42
:103B040042189A42F6D30B4A02E0002342F8043BDF
:103B1400094B9A42F9D3FFF79FFF00F011F8FFF722
:103B2400C3FBFEE700000120F43B00080000002076
:103B34000C0000200C00002010010020FEE7000013
:103B440070B50D4E0D4CA41BA4100025A54209D13F
:103B54000B4E0C4C00F020F8A41BA4100025A54229
:103B640005D170BD56F8253098470135EEE756F873
:103B7400253098470135F2E7EC3B0008EC3B0008A0
:103B8400EC3B0008F03B000802440346934200D19A
:103B9400704703F8011BF9E7F8B500BFF8BC08BC8F
:103BA4009E467047F8B500BFF8BC08BC9E467047F7
:103BB40002030405060708090A0B0C0D0E0F10106A
:103BC4000102030405060708090A0B0C0D0E0F1069
:103BD40000000000000000000102030406070809B9
:083BE4000000000001020304CF
:043BEC00B901000813
:043BF0009501000833
:0C3BF400100000000106000000127A0022
:0400000508003AF1C4
:00000001FF
